{
  "_format": "hh-sol-artifact-1",
  "contractName": "NFT",
  "sourceName": "contracts/NFT.sol",
  "abi": [
    {
      "inputs": [
        {
          "internalType": "uint256",
          "name": "tokenId",
          "type": "uint256"
        }
      ],
      "name": "InvalidToken",
      "type": "error"
    },
    {
      "inputs": [
        {
          "internalType": "address",
          "name": "account",
          "type": "address"
        }
      ],
      "name": "NotAuthorized",
      "type": "error"
    },
    {
      "inputs": [],
      "name": "NotEnoughSupply",
      "type": "error"
    },
    {
      "inputs": [],
      "name": "NotExpectedValue",
      "type": "error"
    },
    {
      "inputs": [],
      "name": "ZeroAddress",
      "type": "error"
    },
    {
      "anonymous": false,
      "inputs": [
        {
          "indexed": true,
          "internalType": "address",
          "name": "_owner",
          "type": "address"
        },
        {
          "indexed": true,
          "internalType": "address",
          "name": "_approved",
          "type": "address"
        },
        {
          "indexed": true,
          "internalType": "uint256",
          "name": "_tokenId",
          "type": "uint256"
        }
      ],
      "name": "Approval",
      "type": "event"
    },
    {
      "anonymous": false,
      "inputs": [
        {
          "indexed": true,
          "internalType": "address",
          "name": "_owner",
          "type": "address"
        },
        {
          "indexed": true,
          "internalType": "address",
          "name": "_operator",
          "type": "address"
        },
        {
          "indexed": false,
          "internalType": "bool",
          "name": "_approved",
          "type": "bool"
        }
      ],
      "name": "ApprovalForAll",
      "type": "event"
    },
    {
      "anonymous": false,
      "inputs": [
        {
          "indexed": true,
          "internalType": "address",
          "name": "owner",
          "type": "address"
        },
        {
          "indexed": false,
          "internalType": "uint256",
          "name": "tokenId",
          "type": "uint256"
        }
      ],
      "name": "Mint",
      "type": "event"
    },
    {
      "anonymous": false,
      "inputs": [
        {
          "indexed": true,
          "internalType": "address",
          "name": "_from",
          "type": "address"
        },
        {
          "indexed": true,
          "internalType": "address",
          "name": "_to",
          "type": "address"
        },
        {
          "indexed": true,
          "internalType": "uint256",
          "name": "_tokenId",
          "type": "uint256"
        }
      ],
      "name": "Transfer",
      "type": "event"
    },
    {
      "inputs": [],
      "name": "FEE",
      "outputs": [
        {
          "internalType": "uint256",
          "name": "",
          "type": "uint256"
        }
      ],
      "stateMutability": "view",
      "type": "function"
    },
    {
      "inputs": [],
      "name": "MAX_SUPPLY",
      "outputs": [
        {
          "internalType": "uint256",
          "name": "",
          "type": "uint256"
        }
      ],
      "stateMutability": "view",
      "type": "function"
    },
    {
      "inputs": [
        {
          "internalType": "address",
          "name": "approved",
          "type": "address"
        },
        {
          "internalType": "uint256",
          "name": "tokenId",
          "type": "uint256"
        }
      ],
      "name": "approve",
      "outputs": [],
      "stateMutability": "payable",
      "type": "function"
    },
    {
      "inputs": [
        {
          "internalType": "address",
          "name": "owner",
          "type": "address"
        }
      ],
      "name": "balanceOf",
      "outputs": [
        {
          "internalType": "uint256",
          "name": "",
          "type": "uint256"
        }
      ],
      "stateMutability": "view",
      "type": "function"
    },
    {
      "inputs": [
        {
          "internalType": "address",
          "name": "owner",
          "type": "address"
        }
      ],
      "name": "balances",
      "outputs": [
        {
          "internalType": "uint256",
          "name": "balance",
          "type": "uint256"
        }
      ],
      "stateMutability": "view",
      "type": "function"
    },
    {
      "inputs": [
        {
          "internalType": "address",
          "name": "owner",
          "type": "address"
        },
        {
          "internalType": "address",
          "name": "operator",
          "type": "address"
        }
      ],
      "name": "delegatedOperators",
      "outputs": [
        {
          "internalType": "bool",
          "name": "",
          "type": "bool"
        }
      ],
      "stateMutability": "view",
      "type": "function"
    },
    {
      "inputs": [
        {
          "internalType": "uint256",
          "name": "tokenId",
          "type": "uint256"
        }
      ],
      "name": "getApproved",
      "outputs": [
        {
          "internalType": "address",
          "name": "",
          "type": "address"
        }
      ],
      "stateMutability": "view",
      "type": "function"
    },
    {
      "inputs": [
        {
          "internalType": "address",
          "name": "owner",
          "type": "address"
        },
        {
          "internalType": "address",
          "name": "operator",
          "type": "address"
        }
      ],
      "name": "isApprovedForAll",
      "outputs": [
        {
          "internalType": "bool",
          "name": "",
          "type": "bool"
        }
      ],
      "stateMutability": "view",
      "type": "function"
    },
    {
      "inputs": [],
      "name": "mint",
      "outputs": [],
      "stateMutability": "payable",
      "type": "function"
    },
    {
      "inputs": [
        {
          "internalType": "uint256",
          "name": "tokenId",
          "type": "uint256"
        }
      ],
      "name": "ownerOf",
      "outputs": [
        {
          "internalType": "address",
          "name": "",
          "type": "address"
        }
      ],
      "stateMutability": "view",
      "type": "function"
    },
    {
      "inputs": [
        {
          "internalType": "address",
          "name": "operator",
          "type": "address"
        },
        {
          "internalType": "bool",
          "name": "approved",
          "type": "bool"
        }
      ],
      "name": "setApprovalForAll",
      "outputs": [],
      "stateMutability": "nonpayable",
      "type": "function"
    },
    {
      "inputs": [],
      "name": "totalSupply",
      "outputs": [
        {
          "internalType": "uint256",
          "name": "",
          "type": "uint256"
        }
      ],
      "stateMutability": "view",
      "type": "function"
    },
    {
      "inputs": [
        {
          "internalType": "address",
          "name": "from",
          "type": "address"
        },
        {
          "internalType": "address",
          "name": "to",
          "type": "address"
        },
        {
          "internalType": "uint256",
          "name": "tokenId",
          "type": "uint256"
        }
      ],
      "name": "transferFrom",
      "outputs": [],
      "stateMutability": "payable",
      "type": "function"
    }
  ],
  "bytecode": "0x6080604052348015600f57600080fd5b506112b98061001f6000396000f3fe6080604052600436106100c25760003560e01c80632edfe0571161007f57806370a082311161005957806370a0823114610253578063a22cb46514610290578063c57981b5146102b9578063e985e9c5146102e4576100c2565b80632edfe057146101ae57806332cb6b0c146101eb5780636352211e14610216576100c2565b8063081812fc146100c7578063095ea7b3146101045780631249c58b1461012057806318160ddd1461012a57806323b872dd1461015557806327e235e314610171575b600080fd5b3480156100d357600080fd5b506100ee60048036038101906100e99190610f8b565b610321565b6040516100fb9190610ff9565b60405180910390f35b61011e60048036038101906101199190611040565b61035e565b005b610128610559565b005b34801561013657600080fd5b5061013f6106b9565b60405161014c919061108f565b60405180910390f35b61016f600480360381019061016a91906110aa565b6106bf565b005b34801561017d57600080fd5b50610198600480360381019061019391906110fd565b610b6f565b6040516101a5919061108f565b60405180910390f35b3480156101ba57600080fd5b506101d560048036038101906101d0919061112a565b610b87565b6040516101e29190611185565b60405180910390f35b3480156101f757600080fd5b50610200610bb6565b60405161020d919061108f565b60405180910390f35b34801561022257600080fd5b5061023d60048036038101906102389190610f8b565b610bbc565b60405161024a9190610ff9565b60405180910390f35b34801561025f57600080fd5b5061027a600480360381019061027591906110fd565b610c9c565b604051610287919061108f565b60405180910390f35b34801561029c57600080fd5b506102b760048036038101906102b291906111cc565b610d4c565b005b3480156102c557600080fd5b506102ce610eb1565b6040516102db919061108f565b60405180910390f35b3480156102f057600080fd5b5061030b6004803603810190610306919061112a565b610ebc565b6040516103189190611185565b60405180910390f35b60006003600083815260200190815260200160002060009054906101000a900473ffffffffffffffffffffffffffffffffffffffff169050919050565b60006001600083815260200190815260200160002060009054906101000a900473ffffffffffffffffffffffffffffffffffffffff16905060003373ffffffffffffffffffffffffffffffffffffffff168273ffffffffffffffffffffffffffffffffffffffff161490506000600260008473ffffffffffffffffffffffffffffffffffffffff1673ffffffffffffffffffffffffffffffffffffffff16815260200190815260200160002060003373ffffffffffffffffffffffffffffffffffffffff1673ffffffffffffffffffffffffffffffffffffffff16815260200190815260200160002060009054906101000a900460ff16905081158015610463575080155b156104a557336040517f4a0bfec100000000000000000000000000000000000000000000000000000000815260040161049c9190610ff9565b60405180910390fd5b846003600086815260200190815260200160002060006101000a81548173ffffffffffffffffffffffffffffffffffffffff021916908373ffffffffffffffffffffffffffffffffffffffff160217905550838573ffffffffffffffffffffffffffffffffffffffff168473ffffffffffffffffffffffffffffffffffffffff167f8c5be1e5ebec7d5bd14f71427d1e84f3dd0314c0f7b2291e5b200ac8c7c3b92560405160405180910390a45050505050565b662386f26fc100003414610599576040517f4a538abf00000000000000000000000000000000000000000000000000000000815260040160405180910390fd5b6000600460008154809291906105ae9061123b565b919050559050336001600083815260200190815260200160002060006101000a81548173ffffffffffffffffffffffffffffffffffffffff021916908373ffffffffffffffffffffffffffffffffffffffff1602179055506000803373ffffffffffffffffffffffffffffffffffffffff1673ffffffffffffffffffffffffffffffffffffffff16815260200190815260200160002060008154809291906106559061123b565b9190505550803373ffffffffffffffffffffffffffffffffffffffff16600073ffffffffffffffffffffffffffffffffffffffff167fddf252ad1be2c89b69c2b068fc378daa952ba7f163c4a11628f55a4df523b3ef60405160405180910390a450565b60045481565b81600073ffffffffffffffffffffffffffffffffffffffff168173ffffffffffffffffffffffffffffffffffffffff1603610726576040517fd92e233d00000000000000000000000000000000000000000000000000000000815260040160405180910390fd5b60006001600084815260200190815260200160002060009054906101000a900473ffffffffffffffffffffffffffffffffffffffff1690508073ffffffffffffffffffffffffffffffffffffffff168573ffffffffffffffffffffffffffffffffffffffff16146107ce57846040517f4a0bfec10000000000000000000000000000000000000000000000000000000081526004016107c59190610ff9565b60405180910390fd5b600073ffffffffffffffffffffffffffffffffffffffff166001600085815260200190815260200160002060009054906101000a900473ffffffffffffffffffffffffffffffffffffffff1673ffffffffffffffffffffffffffffffffffffffff160361087257826040517f925d6b18000000000000000000000000000000000000000000000000000000008152600401610869919061108f565b60405180910390fd5b60008173ffffffffffffffffffffffffffffffffffffffff163373ffffffffffffffffffffffffffffffffffffffff16148061090c57506003600085815260200190815260200160002060009054906101000a900473ffffffffffffffffffffffffffffffffffffffff1673ffffffffffffffffffffffffffffffffffffffff163373ffffffffffffffffffffffffffffffffffffffff16145b8061099d5750600260008373ffffffffffffffffffffffffffffffffffffffff1673ffffffffffffffffffffffffffffffffffffffff16815260200190815260200160002060003373ffffffffffffffffffffffffffffffffffffffff1673ffffffffffffffffffffffffffffffffffffffff16815260200190815260200160002060009054906101000a900460ff165b9050806109e157336040517f4a0bfec10000000000000000000000000000000000000000000000000000000081526004016109d89190610ff9565b60405180910390fd5b6000808773ffffffffffffffffffffffffffffffffffffffff1673ffffffffffffffffffffffffffffffffffffffff16815260200190815260200160002060008154809291906001900391905055506000808673ffffffffffffffffffffffffffffffffffffffff1673ffffffffffffffffffffffffffffffffffffffff1681526020019081526020016000206000815480929190610a7f9061123b565b9190505550846001600086815260200190815260200160002060006101000a81548173ffffffffffffffffffffffffffffffffffffffff021916908373ffffffffffffffffffffffffffffffffffffffff1602179055506003600085815260200190815260200160002060006101000a81549073ffffffffffffffffffffffffffffffffffffffff0219169055838573ffffffffffffffffffffffffffffffffffffffff168773ffffffffffffffffffffffffffffffffffffffff167fddf252ad1be2c89b69c2b068fc378daa952ba7f163c4a11628f55a4df523b3ef60405160405180910390a4505050505050565b60006020528060005260406000206000915090505481565b60026020528160005260406000206020528060005260406000206000915091509054906101000a900460ff1681565b6103e881565b60008073ffffffffffffffffffffffffffffffffffffffff166001600084815260200190815260200160002060009054906101000a900473ffffffffffffffffffffffffffffffffffffffff1673ffffffffffffffffffffffffffffffffffffffff1603610c6157816040517f925d6b18000000000000000000000000000000000000000000000000000000008152600401610c58919061108f565b60405180910390fd5b6001600083815260200190815260200160002060009054906101000a900473ffffffffffffffffffffffffffffffffffffffff169050919050565b600081600073ffffffffffffffffffffffffffffffffffffffff168173ffffffffffffffffffffffffffffffffffffffff1603610d05576040517fd92e233d00000000000000000000000000000000000000000000000000000000815260040160405180910390fd5b6000808473ffffffffffffffffffffffffffffffffffffffff1673ffffffffffffffffffffffffffffffffffffffff16815260200190815260200160002054915050919050565b81600073ffffffffffffffffffffffffffffffffffffffff168173ffffffffffffffffffffffffffffffffffffffff1603610db3576040517fd92e233d00000000000000000000000000000000000000000000000000000000815260040160405180910390fd5b81600260003373ffffffffffffffffffffffffffffffffffffffff1673ffffffffffffffffffffffffffffffffffffffff16815260200190815260200160002060008573ffffffffffffffffffffffffffffffffffffffff1673ffffffffffffffffffffffffffffffffffffffff16815260200190815260200160002060006101000a81548160ff0219169083151502179055508273ffffffffffffffffffffffffffffffffffffffff163373ffffffffffffffffffffffffffffffffffffffff167f17307eab39ab6107e8899845ad3d59bd9653f200f220920489ca2b5937696c3184604051610ea49190611185565b60405180910390a3505050565b662386f26fc1000081565b6000600260008473ffffffffffffffffffffffffffffffffffffffff1673ffffffffffffffffffffffffffffffffffffffff16815260200190815260200160002060008373ffffffffffffffffffffffffffffffffffffffff1673ffffffffffffffffffffffffffffffffffffffff16815260200190815260200160002060009054906101000a900460ff16905092915050565b600080fd5b6000819050919050565b610f6881610f55565b8114610f7357600080fd5b50565b600081359050610f8581610f5f565b92915050565b600060208284031215610fa157610fa0610f50565b5b6000610faf84828501610f76565b91505092915050565b600073ffffffffffffffffffffffffffffffffffffffff82169050919050565b6000610fe382610fb8565b9050919050565b610ff381610fd8565b82525050565b600060208201905061100e6000830184610fea565b92915050565b61101d81610fd8565b811461102857600080fd5b50565b60008135905061103a81611014565b92915050565b6000806040838503121561105757611056610f50565b5b60006110658582860161102b565b925050602061107685828601610f76565b9150509250929050565b61108981610f55565b82525050565b60006020820190506110a46000830184611080565b92915050565b6000806000606084860312156110c3576110c2610f50565b5b60006110d18682870161102b565b93505060206110e28682870161102b565b92505060406110f386828701610f76565b9150509250925092565b60006020828403121561111357611112610f50565b5b60006111218482850161102b565b91505092915050565b6000806040838503121561114157611140610f50565b5b600061114f8582860161102b565b92505060206111608582860161102b565b9150509250929050565b60008115159050919050565b61117f8161116a565b82525050565b600060208201905061119a6000830184611176565b92915050565b6111a98161116a565b81146111b457600080fd5b50565b6000813590506111c6816111a0565b92915050565b600080604083850312156111e3576111e2610f50565b5b60006111f18582860161102b565b9250506020611202858286016111b7565b9150509250929050565b7f4e487b7100000000000000000000000000000000000000000000000000000000600052601160045260246000fd5b600061124682610f55565b91507fffffffffffffffffffffffffffffffffffffffffffffffffffffffffffffffff82036112785761127761120c565b5b60018201905091905056fea26469706673582212204932e8a33452d77d1ae89c585bdf3f6bf72c32e258fd7093716cc4cde010ef7464736f6c634300081c0033",
  "linkReferences": {},
  "deployedLinkReferences": {}
}